:100000000C942A000C9419050C943C000C943C00B0
:100010000C943C000C943C000C943C000C943C0070
:100020000C943C000C943C000C943C000C943C0060
:100030000C943C000C943C000C943C000C943C0050
:100040000C943C000C943C000C943C000C943C0040
:100050000C943C0011241FBECFE5D8E0DEBFCDBF1D
:1000600010E0A0E6B0E001C01D92A336B107E1F7B1
:100070000E948D040C94BE050C940000DF93CF9376
:10008000CDB7DEB727970FB6F894DEBF0FBECDBF52
:1000900089836A834B838B81882309F075C08981AA
:1000A000282F30E03F832E838E819F8182309105FF
:1000B00061F12E813F812330310534F48E819F819F
:1000C0008130910569F0D3C02E813F812330310505
:1000D00089F18E819F818430910509F440C0C7C0A9
:1000E000AAE3B0E0EAE3F0E08081482F8A81282F7C
:1000F00030E081E090E0022E02C0880F991F0A9440
:10010000E2F7809584238C93B2C0A7E3B0E0E7E3E5
:10011000F0E08081482F8A81282F30E081E090E054
:10012000022E02C0880F991F0A94E2F7809584235B
:100130008C939DC0A4E3B0E0E4E3F0E08081482F1D
:100140008A81282F30E081E090E0022E02C0880FE3
:10015000991F0A94E2F7809584238C9388C0A1E3C9
:10016000B0E0E1E3F0E08081482F8A81282F30E081
:1001700081E090E0022E02C0880F991F0A94E2F7F6
:10018000809584238C9373C08B81813009F06FC07C
:100190008981282F30E03D832C838C819D818230A2
:1001A000910551F12C813D812330310534F48C814E
:1001B0009D818130910561F05AC02C813D812330B1
:1001C000310571F18C819D8184309105E9F14FC039
:1001D000AAE3B0E0EAE3F0E08081482F8A81282F8B
:1001E00030E081E090E0022E02C0880F991F0A944F
:1001F000E2F7842B8C933BC0A7E3B0E0E7E3F0E0A9
:100200008081482F8A81282F30E081E090E0022E03
:1002100002C0880F991F0A94E2F7842B8C9327C0A1
:10022000A4E3B0E0E4E3F0E08081482F8A81282F46
:1002300030E081E090E0022E02C0880F991F0A94FE
:10024000E2F7842B8C9313C0A1E3B0E0E1E3F0E08C
:100250008081482F8A81282F30E081E090E0022EB3
:1002600002C0880F991F0A94E2F7842B8C9327967B
:100270000FB6F894DEBF0FBECDBFCF91DF910895CA
:10028000DF93CF93CDB7DEB727970FB6F894DEBFD5
:100290000FBECDBF89836A834B838B81882309F08E
:1002A00075C08981282F30E03F832E838E819F8106
:1002B0008230910561F12E813F812330310534F484
:1002C0008E819F818130910569F0D3C02E813F815D
:1002D0002330310589F18E819F818430910509F4A5
:1002E00040C0C7C0ABE3B0E0EBE3F0E08081482F53
:1002F0008A81282F30E081E090E0022E02C0880F32
:10030000991F0A94E2F7809584238C93B2C0A8E3E6
:10031000B0E0E8E3F0E08081482F8A81282F30E0C8
:1003200081E090E0022E02C0880F991F0A94E2F744
:10033000809584238C939DC0A5E3B0E0E5E3F0E0D5
:100340008081482F8A81282F30E081E090E0022EC2
:1003500002C0880F991F0A94E2F7809584238C933A
:1003600088C0A2E3B0E0E2E3F0E08081482F8A8118
:10037000282F30E081E090E0022E02C0880F991F04
:100380000A94E2F7809584238C9373C08B8181302B
:1003900009F06FC08981282F30E03D832C838C8148
:1003A0009D818230910551F12C813D8123303105B1
:1003B00034F48C819D818130910561F05AC02C818B
:1003C0003D812330310571F18C819D81843091050F
:1003D000E9F14FC0ABE3B0E0EBE3F0E08081482F00
:1003E0008A81282F30E081E090E0022E02C0880F41
:1003F000991F0A94E2F7842B8C933BC0A8E3B0E0EA
:10040000E8E3F0E08081482F8A81282F30E081E006
:1004100090E0022E02C0880F991F0A94E2F7842B05
:100420008C9327C0A5E3B0E0E5E3F0E08081482F9E
:100430008A81282F30E081E090E0022E02C0880FF0
:10044000991F0A94E2F7842B8C9313C0A2E3B0E0C7
:10045000E2E3F0E08081482F8A81282F30E081E0BC
:1004600090E0022E02C0880F991F0A94E2F7842BB5
:100470008C9327960FB6F894DEBF0FBECDBFCF91F9
:10048000DF910895DF93CF9300D000D0CDB7DEB7D2
:1004900089836A838981282F30E03C832B838B8179
:1004A0009C8182309105D9F02B813C81233031052C
:1004B00034F48B819C818130910561F01EC02B81C9
:1004C0003C812330310581F08B819C818430910502
:1004D00081F013C0EAE3F0E08A8180830EC0E7E395
:1004E000F0E08A81808309C0E4E3F0E08A818083C0
:1004F00004C0E1E3F0E08A8180830F900F900F90B9
:100500000F90CF91DF910895DF93CF9300D000D06B
:10051000CDB7DEB789836A838981282F30E03C8399
:100520002B838B819C8182309105D9F02B813C817A
:100530002330310534F48B819C818130910561F049
:100540001EC02B813C812330310581F08B819C8141
:100550008430910581F013C0EBE3F0E08A81808361
:100560000EC0E8E3F0E08A81808309C0E5E3F0E0B3
:100570008A81808304C0E2E3F0E08A8180830F9067
:100580000F900F900F90CF91DF910895DF93CF934D
:1005900000D000D00F92CDB7DEB78A836B838A81FB
:1005A000282F30E03D832C834C815D814230510502
:1005B00041F18C819D818330910534F42C813D8102
:1005C0002130310561F052C04C815D8143305105CD
:1005D00051F18C819D8184309105B9F147C0E9E3E7
:1005E000F0E08081282F30E08B81882F90E0A901F6
:1005F00002C0559547958A95E2F7CA0181708983B3
:1006000035C0E6E3F0E08081282F30E08B81882F31
:1006100090E0A90102C0559547958A95E2F7CA0175
:100620008170898323C0E3E3F0E08081282F30E0EC
:100630008B81882F90E0A90102C0559547958A9536
:10064000E2F7CA018170898311C0E0E3F0E08081A4
:10065000282F30E08B81882F90E0A90102C05595AA
:1006600047958A95E2F7CA018170898389810F9045
:100670000F900F900F900F90CF91DF910895DF931F
:10068000CF93CDB7DEB7A5E5B0E0E5E5F0E080813A
:100690008E7F8C93A5E5B0E0E5E5F0E08081826097
:1006A0008C93ABE5B0E0EBE5F0E0808180648C9367
:1006B000CF91DF910895DF93CF9300D00F92CDB704
:1006C000DEB789838981282F30E03B832A838A81A2
:1006D0009B818230910529F12A813B8123303105AC
:1006E00034F48A819B818130910561F046C02A8172
:1006F0003B812330310521F18A819B818430910532
:1007000071F13BC0A5E5B0E0E5E5F0E080818E7FCA
:100710008C93A5E5B0E0E5E5F0E080818D7F8C93DA
:100720002CC0A5E5B0E0E5E5F0E0808181608C9328
:10073000A5E5B0E0E5E5F0E080818D7F8C931DC0FC
:10074000A5E5B0E0E5E5F0E080818E7F8C93A5E53E
:10075000B0E0E5E5F0E0808182608C930EC0A5E515
:10076000B0E0E5E5F0E0808181608C93A5E5B0E044
:10077000E5E5F0E0808182608C930F900F900F9000
:10078000CF91DF910895DF93CF9300D0CDB7DEB73F
:100790009A83898389819A81909361008093600014
:1007A0000F900F90CF91DF910895DF93CF93CDB746
:1007B000DEB7AFE5B0E0EFE5F0E0808180688C93D4
:1007C000CF91DF910895DF93CF93CDB7DEB7AFE53B
:1007D000B0E0EFE5F0E080818F778C93CF91DF91EF
:1007E0000895DF93CF9300D00F92CDB7DEB7898302
:1007F0008981282F30E03B832A838A819B81823044
:10080000910509F446C02A813B812330310554F417
:100810008A819B81009799F02A813B8121303105A3
:1008200019F175C08A819B818330910509F446C016
:100830002A813B812430310509F455C068C081E02C
:1008400060E040E00E94400181E061E041E00E9400
:10085000400181E062E041E00E94400181E063E00C
:1008600040E00E94400153C081E060E041E00E940E
:10087000400181E061E040E00E94400181E062E0EF
:1008800040E00E94400181E063E041E00E944001BD
:100890003EC081E060E040E00E94400181E061E014
:1008A00040E00E94400181E062E040E00E9440019F
:1008B00081E063E040E00E94400129C081E060E007
:1008C00040E00E94400181E061E041E00E9440017F
:1008D00081E062E040E00E94400181E063E041E0AD
:1008E0000E94400114C081E060E041E00E944001AC
:1008F00081E061E040E00E94400181E062E041E08F
:100900000E94400181E063E040E00E9440010F90BE
:100910000F900F90CF91DF910895DF93CF93CDB7D4
:10092000DEB781E06FE80E94420284E060E040E0D0
:100930000E943E0084E067E041E00E943E0084E0C7
:1009400062E040E00E943E0084E062E041E00E94FC
:1009500040010E94D5030E943F030E94430582E0AC
:100960000E94F1030E94D204FDCFDF93CF93CDB755
:10097000DEB782E00E94F10384E067E041E00E947C
:10098000400101C000000E94AA058234D9F781E02D
:100990000E94F10384E067E040E00E944001CF91B3
:1009A000DF910895DF93CF9300D0CDB7DEB70E94DB
:1009B000AA058093620080916200282F30E03A837C
:1009C000298389819A818C34910539F129813A8171
:1009D0002D3431055CF489819A818234910589F046
:1009E00029813A812634310581F01EC089819A819E
:1009F0008235910571F029813A812335310589F0DD
:100A000013C081E00E94F1030FC080E00E94F10357
:100A10000BC084E00E94F10307C083E00E94F10351
:100A200003C082E00E94F1030F900F90CF91DF91FD
:100A300008951F920F920FB60F9211242F933F9398
:100A40004F935F936F937F938F939F93AF93BF93D6
:100A5000EF93FF93DF93CF93CDB7DEB70E94B5043A
:100A6000CF91DF91FF91EF91BF91AF919F918F91C6
:100A70007F916F915F914F913F912F910F900FBE9A
:100A80000F901F901895DF93CF930F92CDB7DEB7DD
:100A900086E88983ABE2B0E0EBE2F0E080818D7F15
:100AA0008C93ABE2B0E0EBE2F0E080818E7F8C9340
:100AB000AAE2B0E0EAE2F0E080818B7F8C9389814A
:100AC0008460898389818260898389818068898340
:100AD00089818F7B898389818F7D898389818F7EBD
:100AE00089838981877F8983E0E4F0E0898180833D
:100AF000E9E2F0E083E38083AAE2B0E0EAE2F0E03A
:100B0000808180618C93AAE2B0E0EAE2F0E080812B
:100B100088608C930F90CF91DF910895DF93CF93EE
:100B20000F92CDB7DEB7898301C00000EBE2F0E0A1
:100B30008081829586958770882F90E08170907073
:100B4000009799F3ECE2F0E0898180830F90CF91D8
:100B5000DF910895DF93CF93CDB7DEB701C00000DA
:100B6000EBE2F0E08081881F8827881F8130B9F789
:100B7000ECE2F0E08081CF91DF910895F894FFCF0F
:00000001FF
